:020000040800F2
:10000000682C0020AD010008C3370008AB2A0008A7
:10001000EF320008F9090008315B00080000000019
:10002000000000000000000000000000453D000846
:100030006D0A000800000000393C0008314100084A
:10004000C7010008C7010008C7010008C701000870
:10005000C7010008C7010008C7010008C701000860
:10006000C7010008C7010008C7010008C701000850
:10007000C7010008C7010008C7010008C701000840
:10008000C7010008C7010008C70100080000000000
:10009000000000000000000000000000C701000890
:1000A000C7010008C7010008C7010008C701000810
:1000B000D1410008C7010008C7010008C7010008B6
:1000C000C7010008C7010008C7010008C7010008F0
:1000D000C7010008C7010008C701000800000000B0
:1000E000C7010008C7010008C701000800000000A0
:1000F000000000000000000000000000C701000830
:1001000000000000C7010008C7010008C70100087F
:1001100000000000000000000000000000000000DF
:10012000C7010008C7010008C7010008C70100088F
:10013000C7010008000000000000000000000000EF
:10014000000000000000000000000000BD3A0008B0
:10015000C7010008C7010008C7010008C70100085F
:10016000C7010008C70100080000000000000000EF
:10017000000000000000000000000000000000007F
:1001800000000000210C000800000000000000003A
:10019000C7010008C7010008DFF80CD000F09EFB83
:1001A00000480047457E0008682C0020064880472C
:1001B00006480047FEE7FEE7FEE7FEE7FEE7FEE74C
:1001C000FEE7FEE7FEE7FEE7B541000899010008FB
:1001D0002DE9F05F0546002092469B46884606467C
:1001E000814640241BE0284641464746224600F00F
:1001F0008EFA53465A46C01A914110D311461846FA
:10020000224600F075FA2D1A67EB01084F46224688
:100210000120002100F06CFA17EB00094E41201E6E
:10022000A4F10104DFDC484631462A464346BDE8D6
:10023000F09F2DE9F0410024061B254671F10006D0
:1002400005DA01240027D0EB070067EB0101161E39
:1002500073F1000605DA0027D2EB0702012567EBF0
:100260000303FFF7B5FF86460E4617469C46AC4291
:1002700004D00025D0EB050E65EB010624B100206B
:10028000D2EB000760EB030C704631463A466346FA
:10029000BDE8F08140EA01039B0703D009E008C9EB
:1002A000121F08C0042AFAD203E011F8013B00F83B
:1002B000013B521EF9D27047D2B201E000F8012B87
:1002C000491EFBD270470022F6E710B513460A46D6
:1002D00004461946FFF7F0FF204610BD30B504462E
:1002E0000020034600E05B1C934203D2E05CCD5C3F
:1002F000401BF8D030BD2DE9FE4F804681EA030057
:10030000C00F0C46009021F0004123F00045B8EBEF
:100310000200A94105D24046214690461C460B46A4
:10032000024623F00040104347D0270DC7F30A00D0
:10033000C3F30A510290401A019040286BDAC3F3CC
:10034000130040F4801B0098924620B10023D2EBAA
:10035000030A63EB0B0B01985946C0F1400250466B
:1003600000F0C6F906460D4650465946019A00F07F
:10037000DEF910EB08006141002487EA115284EA9B
:10038000E7731A4340D0009A62B3019A012A4FEAF8
:10039000075215DC001B61EB02014FF0004202EA3C
:1003A0000752CDE90042001C41F5801132462B4630
:1003B00000F015FA03B0BDE8F08F40462146F9E79A
:1003C000001B61EB0201001C41F5801300185B412A
:1003D0002018A2F5001747EB030140EAD570B619C3
:1003E0006D4111E06D084FEA360645EAC0754FEAE7
:1003F0000752001B61EB0201001C41F58011490806
:100400004FEA30000019514132462B4603B0BDE897
:10041000F04F00F0D5B90098012240000023D0EB46
:10042000020263EBE073009821464FEAE074B8EBF8
:10043000000061EB0401E9E783F000435BE781F032
:10044000004158E72DE9FE4F81EA030404F000441F
:1004500021F0004100944FF0000B23F0004350EADC
:1004600001045ED052EA03045BD0C3F30A54C1F323
:100470000A552C44A4F2F3340194A0FB0254C1F3B6
:10048000130141F48011C3F3130343F4801301FB00
:10049000024400FB034E840A970A44EA815447EA67
:1004A0008357A4FB076802958D0A05FB07854FEA71
:1004B000932C04FB0C542705029D4FEA065847EA8B
:1004C0001637B5EB08056EEB070C870E920E47EA60
:1004D000811742EA8312A7FB0201B6EB0B0164EB22
:1004E00000042B0D43EA0C335E1844EB1C50DA4633
:1004F0005146E7FB0201C5F313044FEA0B3343EA0D
:1005000014534FEA0432019C43EA0603A4F10C049D
:100510000294009CCDE900B400F061F903B0BDE89D
:10052000F08F00200146F9E72DE9F04D81EA030440
:1005300004F0004B21F0004514464FF0000A23F070
:10054000004150EA050220D054EA01021DD0C5F353
:100550000A570246C5F31303C1F31300C1F30A5649
:1005600040F4801543F48013A7EB0608101BD64611
:1005700008F2FD3873EB050002D308F1010801E031
:1005800092185B41B8F1000F03DA00200146BDE884
:10059000F08D00204FF48011064684460EE0171BB4
:1005A00073EB050705D3121B63EB050306434CEA07
:1005B000010C49084FEA300092185B4150EA0107EC
:1005C000EDD152EA030012D082EA040083EA050169
:1005D000084305D0101BAB4106D20122002306E0E0
:1005E00000224FF0004302E06FF0010253101AEBBB
:1005F00006004CEB085110EB0A0041EB0B01BDE883
:10060000F04D00F0DDB80EB5C10F80EAE07008448F
:10061000CA07002140F233438DE80E000A460B461C
:1006200000F0DDF803B000BD70B5C1F30A5201F06F
:1006300000450024C1F3130140F2FF3341F480115F
:100640009A4201DA002070BD40F233439A42A2F28E
:10065000334203DC524200F05AF800E090402C4351
:10066000F1D0404270BD00F0004230F000400AD0AE
:10067000C10D01F56071C0F3160042EA0151C208D4
:1006800040071143704700200146704701F00043C6
:1006900030B421F0004150EA010206D00A0DA2F563
:1006A0006072C1F31301002A02DC30BC00207047E5
:1006B000440F44EAC104C100E01830BC00EBC25052
:1006C00000F047B830B50B46014600202022012437
:1006D00009E021FA02F59D4205D303FA02F5491B10
:1006E00004FA02F52844151EA2F10102F1DC30BD26
:1006F000202A04DB203A00FA02F1002070479140E2
:10070000C2F1200320FA03F3194390407047202AD6
:1007100004DB203A21FA02F00021704721FA02F3AB
:10072000D040C2F120029140084319467047202A68
:1007300006DBCB17203A41FA02F043EAE07306E009
:1007400041FA02F3D040C2F1200291400843194619
:1007500070470029A8BF7047401C490008BF20F01F
:100760000100704710B4B0FA80FC00FA0CF050EAB7
:10077000010404BF10BC704749B1CCF1200421FA38
:1007800004F411FA0CF118BF012121430843A3EB33
:100790000C01CB1D4FEA00614FEA102042BF002040
:1007A00010BC704700EBC35010440029A4BF10BC1C
:1007B0007047401C490008BF20F0010010BC704782
:1007C00010B5141E73F1000408DA401C41F1000159
:1007D00092185B411A4301D120F0010010BD2DE9B0
:1007E000F04D92469B4611B1B1FA81F202E0B0FAA7
:1007F00080F220329046FFF77BFF04460F4640EA26
:100800000A0041EA0B0153465A46084313D01146E9
:1008100053EA010019D0C8F140025046FFF777FFB4
:1008200005460E46504659464246FFF761FF0843CB
:1008300005D0012004E020463946BDE8F08D0020B7
:10084000054346EAE0762C4337430A986305E40AF9
:10085000A0EB08000022FD0A44EA47540A3002D502
:1008600000200146E9E7010510196941DDE9084565
:1008700000196941BDE8F04DA2E7C1F30A52C1F386
:10088000130140F2FF3341F480119A4202DA002052
:100890000146704740F233439A42A2F2334202DCEF
:1008A0005242FFF734BFFFF723BF000030B5041EEC
:1008B00071F1000404DB4FF00044404264EB01019D
:1008C000141E73F1000405DB1C464FF00043524236
:1008D00063EB0403994208BF904230BD064C074DBC
:1008E00006E0E06840F0010394E807009847103400
:1008F000AC42F6D3FFF754FCE8A2000808A30008B6
:100900002DE9F04D00231A461B1A8A4103DB002013
:100910000146BDE8F08DC1F30A52C1F3130141F461
:1009200080154FF0000BD10702D100186D41521E07
:100930000027044640F2FF11384601EB620A3E46AA
:100940008046024600204FF48011FFF7E0FEC219F6
:100950007141BB1846EB0100B4EB030C75EB000CC6
:1009600004D3E41A65EB000517460E46241908F176
:1009700001006D4180463428E3DDF91946EB06009D
:10098000091BA84103D24FF0FF32134601E00022B9
:1009900013461BEB070046EB0A51BDE8F04DFFF78D
:1009A0000FBF70B58C1810F8015B15F0070301D16B
:1009B00010F8013B2A1106D110F8012B03E010F8C2
:1009C000016B01F8016B5B1EF9D12B0705D40023E5
:1009D000521E0DD401F8013BFAE710F8013BCB1A87
:1009E000921C03E013F8015B01F8015B521EF9D57C
:1009F000A142D8D3002070BDFEE700207047002040
:100A00007047000010B500220449054803F022FE9B
:100A10000449034803F018FE002010BDB81300205D
:100A200014030020B80B002010B50146034803F062
:100A30000BFE024803F0ECFD002010BD1403002063
:100A40000A46094910B5D1F89012D1F8141209B12B
:100A5000012010BD0146044803F0FCFDBDE8104034
:100A6000014803F055BE0000140300207047704792
:100A7000002229B101291AD002291BD04FF440725B
:100A80000E490B6823F440730B600B6813430B6033
:100A90000A6822F0F8020A600A68022303EBC00029
:100AA00002430A60086840F48030086070474FF4E1
:100AB0008072E5E74FF40072E2E70000103C02406C
:100AC000064A136823F440731360136813601368B5
:100AD00043F001031360017070470000103C0240B6
:100AE000094910B50C6824F440740C600C6844F497
:100AF00040740C600C6844F001040C600260BFF3A9
:100B00006F8F436010BD0000103C0240074A13681D
:100B100023F440731360136843F480731360136805
:100B200043F001031360018070470000103C024055
:100B3000074A136823F440731360136843F4007387
:100B40001360136843F001031360016070470000F5
:100B5000103C02401C490868C2061C4805D5C26901
:100B600042F01002C26110220A600A68920605D59E
:100B7000C26942F00802C26120220A600A68520675
:100B800005D5C26942F00402C26140220A600A68C7
:100B9000120605D5C26942F00202C26180220A60D3
:100BA0000A68D20506D5C26942F00102C2614FF45B
:100BB00080720A600A68920705D5C26942F0200275
:100BC000C2610220086070470C3C0240341C0020C7
:100BD00070B5114904460020C86100F023FA0546AB
:100BE0000E4E09E0601C07D024B100F01BFA401B38
:100BF000A04201D9032070BD3068C003F2D4306830
:100C0000C00701D001203060306810F4F970F2D0D4
:100C1000FFF7A0FF012070BD341C00200C3C0240F7
:100C2000704700B591B004208DF800000C208DF8BD
:100C300001000B208DF802000A208DF80300092026
:100C40008DF80400684600F003F811B0002000BDE4
:100C50002DE9F0410646054600F07EF80221042009
:100C6000FFF706FF4FF47A773846FFF7B1FFB84633
:100C700000240B4F0AE000232A78E119184600F0FF
:100C80002DF840466D1CFFF7A3FF641C3078401C14
:100C9000A042F0DC00F018F80020BDE8F081000070
:100CA0000000010870B5044600F0BCF90546601C60
:100CB00002D004480078044400F0B4F9401BA0427C
:100CC000FAD370BD680000200348016841F000417C
:100CD0000160002070470000103C02402DE9F04701
:100CE0001B4E05461446307E1F468946012808D013
:100CF000012030764CF250384046FFF769FF18B1BA
:100D000014E00220BDE8F0879DB1012D16D0022D20
:100D100019D022463B464846FFF7E2FE4046FFF721
:100D200057FF0C490A6822F001020A60002131765F
:100D3000E8E7E1B24846FFF7C3FEEFE7A1B2484655
:100D4000FFF7E4FEEAE721464846FFF7F1FEE5E754
:100D5000341C0020103C0240074900200A68002A89
:100D600009DA054A054B0C3A1360054B1360096814
:100D7000002900DA01207047103C0240230167453A
:100D8000AB89EFCD2DE9F04F8946DFF8D0A00021E7
:100D90004FF0010B4FF00F0C0BFA01F609EA0603B6
:100DA000B34255D121F003045444D4F808288D07E8
:100DB0002F0F0CFA07F505EA0208294A904201D1E3
:100DC000002214E0274A904201D101220FE0264A76
:100DD000904201D102220AE0244A904201D103222A
:100DE00005E0234A904201D1042200E00722BA40E4
:100DF000424514D11F4F3A689A433A603F1D3A6802
:100E00009A433A603F1D3A689A433A603F1D3A68F8
:100E10009A433A60D4F80828AA43C4F8082803681B
:100E20004C000322A24093430360CB0800EB8303F2
:100E30001D6A4C07E70E0CFA07F4A5431D62C36850
:100E40009343C3604368B3434360836893438360C1
:100E5000491C1029A0D3BDE8F08F000000300140EC
:100E6000000002400004024000080240000C024062
:100E700000100240003C01402DE9F84FDFF860B15E
:100E800000224FF003094FF00F0A0BF1040E012569
:100E90000B6895402B40AB4272D14C68012C05D0B9
:100EA000022C03D0112C01D0122C10D186685400D2
:100EB00009FA04F7BE43CF68A74037438760446808
:100EC000AC430D79C5F30015954025434560C468D2
:100ED000570009FA07F58E68AC43BE402643C6604A
:100EE0004C68022C01D0122C12D1D40800EB840CD7
:100EF000DCF820605407E40E0AFA04F826EA080633
:100F0000D1F8108008FA04F848EA0608CCF82080E6
:100F10000468AC430D7905F00305BD402543056029
:100F20004C68E40056D52F4C256845F48045256073
:100F3000246822F0030504F4804400942A4C2E19FE
:100F4000D6F808789407250F0AFA05F4A743274C2A
:100F5000A04201D1002415E0254CA04201D101247A
:100F600010E0244CA04201D102240BE0224CA0420C
:100F700001D1032406E0214CA04202D1042401E067
:100F800028E00724AC403C43C6F80848DBF80040A2
:100F90005D464E689C43F60300D51C432C60DEF88A
:100FA000004075464E689C43B60300D51C432C6038
:100FB0000B4D08352C684E689C43F60200D51C4347
:100FC0002C60074D0C352C684E689C43B60200D54A
:100FD0001C432C60521C102AFFF459AFBDE8F88F57
:100FE000003C014044380240003001400000024013
:100FF0000004024000080240000C024000100240C1
:101000000069084000D001207047426931EA0202BD
:1010100000D10904816170470AB1816170470904F8
:10102000FBE700000148806870470000680000206E
:1010300010B5040013D0242084F83D002068016816
:1010400021F001010160204600F064FA00202064D4
:1010500084F83D0044F8300FA073207310BD0120C8
:1010600010BD000070B5040025D094F83D000025A7
:1010700020B984F83C50204600F060FA242084F81F
:101080003D002068016821F00101016020680168CD
:1010900041F4004101602068016821F400410160D1
:1010A00001F060F84D4B6168994201D84C4900E06D
:1010B0004C49884201D2012070BD4B492268B0FBE7
:1010C000F1F1566826F03F060E43566062689A4278
:1010D00006D94FF4967251434FF47A72B1FBF2F194
:1010E0002268491C166A26F03F0631431162616886
:1010F000994210D84900401EB0FBF1F2521CC2F3D5
:101100000B02042A01D2042022E0B0FBF1F0401CC3
:10111000C0F30B001CE0A268F2B301EBC10303EBC8
:101120000116431EB3FBF6F35B1C43F480431B051F
:1011300049D092B301EBC10202EB0111401EB0FB9A
:10114000F1F0401CC0F30B0040F4804040F400403C
:101150002168CA694CF6FF739A431043C861D4E909
:10116000071001432068026822F0C00211430160A9
:10117000D4E9030101432068826848F2FF339A43AF
:1011800011438160D4E9051001432068C26822F050
:10119000FF021143C16001E00EE016E02068016823
:1011A00041F0010101602564202084F83D002563A1
:1011B00084F83E50002070BD01EB4106431EB3FB96
:1011C000F6F35B1CB3E70120C2E701EB4101401ECF
:1011D000B0FBF1F0401CC0F30B00B7E7A0860100A4
:1011E00080841E0000093D0040420F002DE9FF4FA2
:1011F00083B09A46DDE9119793460446DDF84080B6
:10120000FFF710FF054694F83D00202870D1192300
:10121000012271492046009501F058FD0028F5D1C2
:1012200094F83C00012863D0012084F83C00206839
:101230000168C90703D1016841F00101016020681C
:10124000016821F400610160222084F83D00402003
:1012500084F83E0000262664C4F82480A4F82A906E
:10126000608D20855D48E062CDE9007553465A46A1
:101270002046049901F032FC00287CD1208DD0B1A9
:10128000012821D00228206824D04169806900907B
:10129000208D032869D801282BD0514902283B46CC
:1012A0004FF00002009559D08846204601F00EFD0F
:1012B000002860D13CE020684169816900910168A3
:1012C00041F40071016077E02068016821F48061D9
:1012D0000160F0E7016821F4806101602068016825
:1012E00041F400610160206841698069009063E019
:1012F0006FE02A463946204601F068FD98BB206819
:101300000069616A08704EE02068016841F400716C
:10131000016020680069616A0870606A401C606250
:10132000218D491E2185618D491E6185216838E026
:101330002068016821F48061016020680069616AA9
:101340000870606A401C6062208D401E2085608DA0
:10135000401E60853B46002241460095204601F034
:10136000B5FC00B9D0E706E0FFE72A46394620463B
:1013700001F02CFD18B1012007B0BDE8F08F206806
:101380000069616A0870606A401C6062218D491EB4
:101390002185618D491E618521684A69D2435207C2
:1013A0000AD409690170606A401C6062208D401E89
:1013B0002085608D401E6085208D00287FF468AFF9
:1013C000202084F83D0084F83E6084F83C600020D2
:1013D000D2E70220D0E70000020010000000FFFF6B
:1013E000040001002DE9FF4F83B09A46DDE9119713
:1013F00093460446DDF84080FFF714FE054694F856
:101400003D0020287FD11923012240492046009524
:1014100001F05CFC002876D194F83C00012872D0E1
:10142000012084F83C0020680168C90703D10168E5
:1014300041F0010101602068016821F40061016050
:10144000212084F83D00402084F83E0000262664D8
:10145000C4F82480A4F82A90608D20852C48E0628E
:10146000CDE9007553465A462046049901F0B4FB75
:1014700070B930E02A463946204601F0DCFC58B10C
:10148000206C042804D12068016841F400710160D7
:10149000012007B0BDE8F08F606A2168007808611C
:1014A000626A521C6262208D401E80B22085618D6E
:1014B000491E618521684B69DB435B070BD468B12A
:1014C00010780861606A401C6062208D401E208593
:1014D000608D401E6085208D0028CBD12A4639467C
:1014E000204601F0CDFB0028CAD154F83D0B01681D
:1014F00041F400710160202004F81E09E677667748
:101500000020C6E7FFE70220C3E70000020010004A
:101510000000FFFF00680649884208D105480168BD
:1015200021F400110160C0210348FFF72BBC704774
:1015300000540040403802400004024010B586B01C
:10154000044614216846FEF7BEFE1349206888420F
:1015500020D11248016841F002010160006869462B
:1015600000F002000590C0200090122001900120A0
:10157000029003200390042004900948FFF77CFCAC
:1015800006481030016841F400110160006800F461
:101590000010059006B010BD0054004030380240E5
:1015A000000402400248816802781144816070475B
:1015B000680000200B4810B5016841F4007101601B
:1015C000016841F480610160016841F4807101604B
:1015D000032000F077F8002000F006F800F024F86F
:1015E000002010BD003C024070B50D4D04464FF484
:1015F0007A712878B1FBF0F00A490968B1FBF0F084
:1016000000F0A8FF48B9102C07D200222146501E36
:1016100000F038F800206C6070BD012070BD000043
:1016200068000020740000200E4808B5016841F4ED
:1016300080410160006800F4804000900948001F6C
:10164000016841F0805101600068002200F0805084
:1016500000901146512000F015F8BDE808405120D7
:1016600000F002B844380240002809DB00F01F02F5
:10167000012191404009800000F1E020C0F80011F4
:1016800070470000F0B40E4B1B68C3F30223C3F194
:101690000704042C00D904241D1D072D01D20023AA
:1016A00000E0DB1E012606FA04F56D1E0D409D408C
:1016B0009E40761E164045EA0601F0BC04F076BA5C
:1016C0000CED00E0064A00F0070110684FF6FF033A
:1016D000184040EA012003490843106070470000A9
:1016E0000CED00E00000FA05704700684162002040
:1016F0007047F0B50368586A39B19C6A4FF4827537
:1017000000EB144400204E1E0AE040EA02409862BA
:101710000FE005EB8007DF59401C04EB1744C0B213
:10172000B042F6D344EA02404FF4807202EB8101EA
:1017300058500020F0BDD0F8040403F03CBAC1EBCF
:10174000C10200EB8202D0F80404926C03F08FB95E
:10175000C1EBC10200EB8202D0F80404D2F80822E7
:1017600003F0E8B9D0F8040403F027BA70B50446D2
:101770000B0601F00F00C0EBC00104EB81014FF03C
:1017800001024FF0000503D581F83D203C3103E014
:1017900081F8FD5101F5FE71087094F8BC03012831
:1017A00008D084F8BC23206803F07CFD84F8BC5387
:1017B000002070BD022070BD70B5044601F00F001E
:1017C0006268904201D9012070BD0B0601F00F0143
:1017D000C1EBC10104EB81014FF001024FF00005A4
:1017E00003D581F83D203C3103E081F8FD5101F53E
:1017F000FE718D70087094F8BC03012808D084F83D
:10180000BC23206803F028FF84F8BC53002070BD7F
:10181000022070BD01F00F01C1EBC10100EB81009E
:10182000D0F8140270472DE9F04104460F0601F08C
:101830000F00C0EBC00104EB81014FF001064FF037
:10184000000503D581F83D603C3103E081F8FD518E
:1018500001F5FE7108708A60CB704A7802B1C880C9
:10186000022B00D10D7194F8BC03012809D084F833
:10187000BC63206803F068FC284684F8BC53BDE8CC
:10188000F0810220FBE770B50D4601F00F04C4EBB8
:10189000C40100EB8101C1F81032C1F80822002315
:1018A000C1F8143281F8FD3181F8FC41036901F57A
:1018B000FE71012B00D10A612A07027C006803D067
:1018C00003F022FF002070BD03F00EFEFAE770B5B2
:1018D00004460D4601F00F006168884201D90120DD
:1018E00070BD29064FF000064FF0010207D5C0EB8E
:1018F000C00104EB810181F83D203C3107E0C5EBDC
:10190000C50104EB810181F8FD6101F5FE718A706A
:10191000087094F8BC03012807D084F8BC23206821
:1019200003F0C6FE280702D007E0022070BD217C2C
:1019300004F57172206803F063FE84F8BC63002034
:1019400070BD70B50D4601F00F04C4EBC40100EB8F
:1019500081010B658A6400234B65012381F83D30CA
:1019600001F83C4F0369012B00D10A612A07027C70
:10197000006803D003F0C8FE002070BD03F0B4FD82
:10198000FAE700002DE9F84F05680446284603F001
:10199000E2FF00287ED1206804F009F8002879D001
:1019A000206804F004F8800704D52068416901F03C
:1019B00002014161206803F0FAFF010304F5717030
:1019C00000906CD50026206803F0D0FF80464FF4CD
:1019D000004ADFF8F0B35CE05FEAC87056D0F1B2BD
:1019E000206803F0DCFF0746C00708D005EB46116E
:1019F0000120C1F8080B3146204602F065F838078F
:101A000026D52068D0F8409000EB4610D0F8081B8F
:101A10002269012A0FD0EC4B994503D1090401D565
:101A2000C0F808AB204600F0BCFAD9450BD92069B4
:101A3000012803D007E0D945F0D8F3E72068012159
:101A4000009A03F0DDFD05EB46110820C1F8080BF4
:101A5000F80604D505EB46111020C1F8080BB806AE
:101A60000CD52069012804D120680121009A03F0D7
:101A7000C7FD05EB46102021C0F8081BB80405D5AA
:101A800005EB46104FF40051C0F8081B4FEA580808
:101A9000761C01E093E102E0B8F1000F9CD12068D0
:101AA00003F085FF40034FF000095FD5206803F085
:101AB00056FF8046002656E05FEAC87050D0F1B26B
:101AC000206803F05AFF0746C00727D006F00F0131
:101AD000012202FA01F0D5F834188143C5F8341810
:101AE00005EB4610C0F808292069012807D1C6EB8C
:101AF000C60004EB8000D0E9112111448164F1B2E9
:101B00002046FFF71CFE2069012807D136B9206D59
:101B100020B920680121009A03F072FD380704D52E
:101B200005EB46110820C1F80809F80604D505EBB5
:101B300046111020C1F80809780604D505EB4610B7
:101B40004021C0F80819B80704D505EB461002215A
:101B5000C0F80819380603D53146204602F020F8AF
:101B60004FEA5808761CB8F1000FA5D1206803F0A1
:101B70001EFF002811DAD5F8040820F00101C5F88D
:101B8000041894F8F40301282BD0204600F0EDF956
:101B90002068416901F000414161206803F007FFBE
:101BA00000050BD5D5F80808C00702D0204600F084
:101BB00021FA2068416901F400614161206803F065
:101BC000F6FEC00460D5D5F8040820F00101C5F880
:101BD00004181021206803F09FFE00214FF67F3289
:101BE00019E084F8F49300212046FFF77DFDCFE74C
:101BF00005EB4110C0F80829D0F8003923F4001390
:101C0000C0F80039C0F8082BD0F8003B23F40013CB
:101C1000C0F8003B491C60688842E9D8D5F81C0828
:101C200040F00111C5F81C18206B002828460DD083
:101C3000D0F8840840F00B01C5F88418D5F84408A2
:101C400040F00B012846C5F844180DE0D0F8140800
:101C500042F22B010843C5F81408D5F8100840F0EB
:101C60000B012846C5F81018D0F8000820F4FE61D2
:101C7000C5F80018217C2068009A03F0C1FC206898
:101C8000416901F480514161206803F090FE8004B5
:101C900015D5206803F098FA206803F04FFEE06045
:101CA00000F05AFA0146227B206803F0BBFE204672
:101CB00000F048F92068416901F400514161206851
:101CC00003F075FEC00634D52068816921F010014B
:101CD00081612F6A07F00F00C0EBC00004EB8006A3
:101CE000C7F3434006F5FE76022802D0062811D03D
:101CF0001AE047F6F070074216D0C7F30A121746EB
:101D00002846F16803F057FEF0683844F060B06987
:101D1000384408E008222846009903F04CFEB069D8
:101D2000C7F30A110844B0612068816941F01001CD
:101D30008161206803F03BFE000707D5204600F0D4
:101D400018F92068416901F008014161206803F039
:101D50002EFEC00208D50021204600F037F820688A
:101D6000416901F480114161206803F020FE800286
:101D700008D50021204600F02DF82068416901F4C3
:101D800000114161206803F012FE400007D5204693
:101D9000FFF7D1FC2068416901F080414161206872
:101DA00003F005FE40070AD520684568680702D59C
:101DB0002046FFF7D7FC2068416829434160BDE811
:101DC000F88F00000A30544F0A31544FD0F8040401
:101DD00002F042BFD0F8040402F040BF2DE9F04108
:101DE0008AB0040005D094F8BD032668002520B110
:101DF00008E001200AB0BDE8F08184F8BC53204619
:101E000000F05EF8032084F8BD03F06BC00500D439
:101E10002561206803F062FB04F110012822884646
:101E20006846FEF737FA94E80F0003F0E7F9022757
:101E3000C8BB0021206803F0CDFD002101260EE083
:101E4000C1EBC10004EB800080F83D6000F83C1F4E
:101E5000C180C5708560C560491CC9B245616068B4
:101E60008842EDD8002111E0C1EBC10004EB8000F5
:101E700080F8FD5180F8FC1180F8FF51C0F8045241
:101E8000C0F80852491CC9B2C0F8105260688842B4
:101E9000EAD8282241466846FEF7FCF994E80F008C
:101EA00003F058FA10B184F8BD73A2E784F83850F3
:101EB00084F8BD63206803F041FA00209AE700002F
:101EC00010B586B0044614216846FEF7FCF9206878
:101ED000B0F1A04F2FD119480021026842F0010251
:101EE0000260006800F0010005904FF4C0500090BF
:101EF0000220CDE90101032003900A2004906946E5
:101F00000F48FEF7B9FF0D48001D016841F0800140
:101F100001600A481430016841F4804101600068A2
:101F2000002200F48040059011464320FFF7AAFBF1
:101F30004320FFF799FB06B010BD00003038024087
:101F40000000024070B50446C0680125022801D097
:101F5000FEF78DFD2946D4F8040402F0D0FED4F833
:101F60000404BDE8704002F090BED0F8040402F012
:101F7000B4BED0F8040402F0B6BE10B5044690F822
:101F8000BC0301280BD0012084F8BC0384F838106E
:101F9000206803F036FD002084F8BC0310BD022049
:101FA00010BDD0F8042400F57171104602F0B3BEE4
:101FB00010B50446006894F8BC13012906D001212D
:101FC00084F8BC13A16A012902D008E0022010BDE8
:101FD000A169012903D0816B41F4803181632068BC
:101FE00003F0A0F9206803F081FC002084F8BC0312
:101FF00010BD000010B50446D0F8040402F0CAFE7B
:102000002068D0F8001E41F00101C0F8001E206ACF
:10201000002804D00248016841F00601016010BDAB
:1020200010ED00E02DE9F0470D46040065D0DFF823
:102030001491D9F80000EFB200F00F00A84207D2C7
:1020400089F80070D9F8000000F00F00A84254D1C0
:1020500020683D4E810712D5400703D5306840F413
:10206000E05030602078000703D5306840F46040CD
:1020700030603068A16820F0F000084330602078BC
:10208000C0072DD0304960680839012812D00228D5
:1020900013D0032811D00968890700292DDA316887
:1020A00021F0030101433160FEF7BCFF804641F29D
:1020B000883A0EE009688903EFE709688901ECE7CF
:1020C000FEF7B0FFA0EB0801514502D90320BDE89F
:1020D000F0873068616800F00C00B0EB810FEFD141
:1020E000D9F80010484601F00F01A94207D907703E
:1020F000006800F00F00A84201D00120E7E7207837
:10210000400705D53068E16820F4E05008433060AE
:102110002078000706D53068216920F4604040EA45
:10212000C100306000F03EF83168084AC1F3031185
:10213000515CC8400649086006480068FFF754FA39
:102140000020C4E7003C02400838024042950008E5
:10215000740000206C0000200148006870470000F7
:10216000740000200448054900680968044AC1F366
:102170008221515CC840704774000020083802403A
:10218000529500080448054900680968044AC1F3EB
:102190004231515CC840704774000020083802404A
:1021A00052950008154810B5006810F00C0114484D
:1021B00013D0144B04290FD008290ED10F4C241F23
:1021C000216801F03F022168490207D52068C0F369
:1021D0008810A0FB030106E0184610BD2168C1F37A
:1021E0008811A1FB00010023FDF7F2FF2168C1F374
:1021F0000141491C4900B0FBF1F010BD0838024014
:102200000024F40040787D012DE9F84F040075D0DA
:102210002078DFF828B3CA4DC00748D0DBF800109B
:102220005846C1F38101012908D00068C0F381003C
:1022300002280AD1281D0068400206D528688003BC
:1022400035D560680028E2D031E06068B0F5803FA5
:1022500010D0B0F5A02F286810D020F4803028606E
:10226000286820F4802028606068A0B1FEF7DAFEBC
:1022700006460CE0286840F48030F4E740F4802003
:102280002860F7E7FEF7CEFE801B642872D8286826
:102290008003F7D50BE0FEF7C5FE064604E0FEF727
:1022A000C1FE801B6428F1D828688003F7D4207809
:1022B000DFF8909280074FF0000A3ED5DBF800105F
:1022C000584611F00C0F09D00068C0F381000228B5
:1022D0000BD19A48001F0068400206D42868800786
:1022E00015D5E068012809D111E0E068B8B10120F6
:1022F000C9F80000FEF796FE064605E01AE1FEF773
:1023000091FE801B0228C1D828688007F7D528686D
:10231000216920F0F80040EAC10028600DE0C9F80A
:1023200000A0FEF77FFE064604E0FEF77BFE801B62
:1023300002281FD828688007F7D42078000722D504
:102340007E4F814861696C3771B101210160FEF7F0
:1023500069FE064604E0FEF765FE801B022809D8E8
:1023600038688007F7D50EE0C0F800A0FEF75AFEE7
:10237000064605E082E0FEF755FE801B02287DD868
:1023800038688007F7D42078400765D56B484FF050
:10239000000838300068C0000BD468483830016845
:1023A00041F08051016000684FF0010800F080505A
:1023B0000090664F3868C0050FD4386840F48070CC
:1023C0003860FEF72FFE064604E0FEF72BFE801B6A
:1023D000022853D83868C005F7D5584FA068683729
:1023E00001280FD00528386810D020F0010038608F
:1023F000386820F004003860A068B0B1FEF712FE23
:1024000006460EE0386840F00100F4E740F00400B2
:102410003860F7E7FEF706FE811B41F28830814203
:1024200064D838688007F5D50DE0FEF7FBFD064659
:1024300006E0FEF7F7FD811B41F28830814255D856
:1024400038688007F5D4B8F1000F05D03B48383024
:10245000016821F080510160A069C0B3DBF8002061
:102460005946C2F38102022A47D00228504606D0BC
:10247000C9F86000FEF7D6FD04463AE036E04F4664
:10248000C9F86000FEF7CEFD064604E0FEF7CAFD7F
:10249000801B02282AD828688001F7D4D4E90701D4
:1024A0000843A16A2A4A490802EB0141626A41EAEB
:1024B0008211084394F82C1040EA01611F48001F64
:1024C000016001203866FEF7ADFD044605E033E00B
:1024D000FEF7A8FD001B022808D828688001F7D560
:1024E0002AE0FEF79FFD001B022802D90320BDE869
:1024F000F88F28688001F4D41EE00128F7D008681E
:10250000E26900F48001914214D1226A00F03F0197
:1025100091420FD147F6C071626A0140914209D1E0
:10252000A26A00F44031914204D1E16A00F0706087
:10253000884201D00120DAE70020D8E708380240BD
:102540000038024000004742800E474200700040C1
:102550000000FFFF10B5401EB0F1807F01D30120C5
:1025600010BD4FF0E02460610F21601703F01EFBE7
:102570000020A06107202061002010BD7047704737
:1025800070B590F83C20012A2CD0012580F83C50F1
:10259000022280F83D2002685368946823F0700698
:1025A0000B6833435360104B02689A420ED0B2F16D
:1025B000804F0BD00D4B9A4208D00D4B9A4205D05C
:1025C0000C4B9A4202D00C4B9A4204D1496824F039
:1025D00080031943916080F83D50002180F83C1041
:1025E000084670BD022070BD00000140000400409C
:1025F00000080040000C00400040014010B50400FD
:1026000003D094F83D0010B107E0012010BD002078
:1026100084F83C00204600F00DF8022084F83D00CC
:10262000211D206801F0DAFD012084F83D00002022
:1026300010BD000008B50068B0F1804F12D10A4803
:10264000016841F0010101600068002200F0010012
:10265000009011461C20FFF715F8BDE808401C202B
:10266000FFF702B808BD0000403802400168CA68A0
:1026700042F00102CA600068816801F00701062982
:1026800003D0016841F00101016000207047022180
:1026900080F83D1001680A6A41F211131A4207D10D
:1026A0000A6A9B101A4203D10A6822F001020A60EA
:1026B000012180F83D100020704770B5044690F865
:1026C0003C00012817D0012584F83C50022084F8F2
:1026D0003D002068826822F0770222F47F42826007
:1026E0000868502830D00DDC20284DD005DC98B388
:1026F00010283BD148E0022070BD302844D040284B
:1027000034D139E0602828D0702806D0B0F5805F39
:102710002CD0B0F5005F29D10AE0CB68D1E90121C6
:10272000206801F0A7FD2068816841F0770109E089
:10273000CB68D1E90121206801F09CFD2068816807
:1027400041F48041816011E0CA684968206801F065
:10275000A3FD5021206807E016E0CA684968206898
:1027600001F0ABFD6021206801F08EFD84F83D5042
:10277000002084F83C0070BDCA684968206801F0F8
:102780008BFD40212068EFE7226801461046EBE709
:10279000704770B50446006801694FF00005C943F1
:1027A000890715D4C168C943890711D4E91E01619D
:1027B00001202077206880698007204602D0FFF73B
:1027C000E7FF04E000F098F8204600F096F825773F
:1027D00020680169C943490717D4C168C94349073B
:1027E00013D46FF004010161022020772068806912
:1027F00010F4407F204602D0FFF7CAFF04E000F04B
:102800007BF8204600F079F8257720680169C943F4
:10281000090716D4C168C943090712D46FF008012B
:102820000161042020772068C0698007204602D01B
:10283000FFF7AEFF04E000F05FF8204600F05DF81F
:10284000257720680169C943C90617D4C168C943FF
:10285000C90613D46FF010010161082020772068A9
:10286000C06910F4407F204602D0FFF791FF04E0DA
:1028700000F042F8204600F040F825772068016912
:10288000C943C90708D1C168C943C90704D1891E12
:102890000161204600F032F820680169C943090649
:1028A00009D4C168C943090605D46FF080010161EC
:1028B0002046FFF763FE20680169C943490609D431
:1028C000C168C943490605D46FF040010161204643
:1028D00000F026F820680169C94389060BD4C16855
:1028E000C943890607D46FF0200101612046BDE885
:1028F0007040FFF744BE70BD7047704710B54FF48D
:1029000000510548FEF781FB044800F019FBBDE8C3
:10291000104001F093B9000000080240D8010020E7
:10292000704770B5040004D094F83900002510B148
:1029300006E0012070BD84F83850204600F022F8EF
:10294000242084F839002068C16821F40051C16056
:10295000204601F0C5FC2068016921F49041016125
:102960002068416921F02A0141612068C16841F471
:102970000051C160E563202084F8390084F83A00F2
:10298000002070BD10B586B0044614216846FDF7DE
:102990009AFC14492068884221D11348002102681A
:1029A00042F010020260006800F0100005900E482E
:1029B0001438026842F001020260006800F0010071
:1029C00005904FF4C06000900220CDE90101032082
:1029D00003900720049069460448FEF74DFA06B0BC
:1029E00010BD0000001001404438024000000240C9
:1029F0002DE9F843044690F839001E4617460D4667
:102A0000202850D1B5B1AFB194F8380001284AD090
:102A1000012084F838004FF00008C4F83C802120E1
:102A200084F83900FEF7FEFAA7848146E78484F82B
:102A3000388026E00120BDE8F883E08C401EE08469
:102A4000A0684B46B0F5805F4FF000024FF0800168
:102A50002046009603D001F0D7FCE8B90DE001F064
:102A6000D3FCC8B928882168C0F3080048602069F1
:102A700008B16D1C05E0AD1C03E0216815F8010BE1
:102A80004860E08C0028D8D14B46002240212046E7
:102A9000009601F0B9FC08B10320CCE7202084F8AF
:102AA00039000020C7E70220C5E7FEE701684A6950
:102AB000D24352050FD46FF480624A61002140F87E
:102AC000301F202242738173026942F004020261C6
:102AD0000173012070470020704700002DE9F84F76
:102AE0000446006889460B9E01689846174641F4E3
:102AF000806101602068016841F480710160009686
:102B00004FF0011B0022594620460A9B00F0DEF8D8
:102B10004FF4007A40B120680068C00501D5C4F8C0
:102B200040A00320BDE8F88F216809F0FE0008618D
:102B30003346284920460A9A00F0FCF8F0BB20688A
:102B4000416980690090324620460A9900F073F985
:102B500040B1206C04283AD12068016841F400712A
:102B6000016034E0FDB2B8F1010F09D02168380AE4
:102B70000861324620460A9900F05DF90028E8D144
:102B800020680561324620460A9900F054F9002871
:102B9000DFD12068016841F4807101600096002255
:102BA000594620460A9B00F091F80028B3D12168CD
:102BB00009F0FF0040F00100086100E007E0334643
:102BC000044920460A9A00F0B5F80028AAD001204E
:102BD000A8E70000020001002DE9F8430446006860
:102BE0000D46DDE9089701689846164641F4807164
:102BF00001604B4600224FF001112046009700F083
:102C000065F848B120680068C00502D54FF400702F
:102C100020640320BDE8F883216805F0FE00086108
:102C20003B464A461549204600F084F888B920689A
:102C30004169806900903A464946204600F0FBF819
:102C400048B1206C042804D12068016841F4007167
:102C500001600120DEE7F5B2B8F1010F09D021686B
:102C6000300A08613A464946204600F0E4F8002858
:102C7000E7D1206805610020CCE7000002000100D8
:102C800070B516460D4604460DE02046FFF70EFFD0
:102C900008B1012070BD681C05D0FEF7C3F9801B88
:102CA000A84207D835B120684069C0434007ECD43A
:102CB000002070BD002044F8300F20216173A07304
:102CC000216941F0200121612073E2E72DE9F047FD
:102CD0001D4690460E460446C1F30747DDF8209096
:102CE00008E0681C06D0FEF79DF9A0EB0900A84299
:102CF0000FD875B12068012F18D0806926EA00002E
:102D00000004000C14D000204045EAD00020BDE8AB
:102D1000F087002044F8300F20216173A0732169EF
:102D200041F02001216120730120F0E74069E5E7CF
:102D30000120E9E72DE9F047984615460E4604467E
:102D40004FF000094FF0200AC1F3074723E0206845
:102D50004069C043400515D42068016841F4007102
:102D6000016021686FF480604861C4F8309084F895
:102D70003DA084F83E90216C41F00401216484F868
:102D80003C901EE0681C06D0FEF74CF9A0EB080052
:102D9000A8420AD84DB12068012F15D0806926EAD3
:102DA00000000004000C0DD0D1E744F8309F84F8F7
:102DB0000DA084F80E90216941F02001216184F872
:102DC0000C900120BDE8F0874069E8E72DE9F0416B
:102DD00016460D46044600274FF0200817E04069CC
:102DE000C043C0060DD454F8301B6FF0100048618A
:102DF00044F80D7B04F81D89A777206A20622777A5
:102E000017E0FEF70FF9801BA84208D83DB12068F3
:102E10004169C9434906E2D40020BDE8F08144F885
:102E2000307F84F80D80A773206940F02000206176
:102E300027730120F1E770B516460D4604460DE0F4
:102E40002046FFF733FE08B1012070BD681C05D095
:102E5000FEF7E8F8801BA84207D835B12068406922
:102E6000C0430006ECD4002070BD002044F8300FB1
:102E700020216173A073216941F020012161207339
:102E8000E2E7F0B500230A24302537261F4610E07C
:102E9000B4EB107F02D905EB107C01E006EB107C4F
:102EA00001F813C001EB430C00015B1C8CF80170AE
:102EB000DBB29342ECD3F0BD7CB514460D4606461A
:102EC0006B4606223B21D02000F028F800280BD1C9
:102ED000BDF8001049BA3180BDF8021049BA298006
:102EE000BDF8041049BA21807CBD7CB514460D465E
:102EF00006466B4606224321D02000F00FF800283A
:102F00000BD1BDF8001049BA3180BDF8021049BAA2
:102F10002980BDF8041049BA21807CBD0EB564201B
:102F2000CDE9003202900A460123D0210348FEF782
:102F30005DF9002800D001200EBD000040020020F5
:102F400010B504462DED0A8B05F05EF818B101208E
:102F5000BDEC0A8B10BD221DA11C2046FFF7ACFF63
:102F600004F12402911E881EFFF7BFFF94ED14CADE
:102F700094ED169AD4ED159AD4ED17BA2CEE090AF1
:102F8000B0EE00BA09EEEB0A20EE0B0A10EE100AC2
:102F9000FDF769FB41EC1A0BB4F90000FDF733FBB8
:102FA0009FED358B53EC182BFDF74CFA53EC1A2B95
:102FB000FDF7A1F929EE2B0AC4E902010CEE290A5A
:102FC00020EE0B0A10EE100AFDF74DFB41EC1A0B38
:102FD000B4F90200FDF717FB53EC182BFDF732FA9A
:102FE00053EC1A2BFDF728FA29EEA90AC4E90401CB
:102FF00009EE090A20EE0B0A10EE100AFDF733FB6A
:1030000041EC190BB4F90400FDF7FDFA53EC182B51
:10301000FDF718FA9FED1A1B53EC112BFDF70CFA74
:1030200053EC192BFDF767F9C4E90601B4F9200048
:10303000FDF7E9FA9FED148B53EC182BFDF774FAAA
:10304000C4E90A01B4F92200FDF7DDFA53EC182BAC
:10305000FDF76AFAC4E90C01B4F92400FDF7D3FACC
:1030600053EC182BFDF760FAC4E90E01012084F837
:10307000600000206CE70000000000000000203F1E
:10308000000000000000F03F000000000060604011
:103090000EB56420CDE9003202900A460123D0210A
:1030A0000348FEF79FF9002800D001200EBD000064
:1030B00040020020F0B587B014216846FDF703F9FF
:1030C00033480024016841F004010160016801F007
:1030D00004010591016841F080010160016801F07F
:1030E00080010591016841F001010160016801F072
:1030F00001010591016841F0020101600068254E5F
:1031000000F002004FF40055059000222946304699
:10311000FDF782FF204F0122F8213846FDF77CFFA2
:1031200000950125CDE90154694630460394FDF729
:10313000A3FECDE90054694638460295FDF79CFE92
:1031400048F206100326CDE9000669460294384687
:10315000FDF792FEF820CDE90005CDE9024669466B
:103160003846FDF789FE4FF23760CDE900060B4D7A
:10317000694602942846FDF77FFEA815CDE90004B4
:10318000694628460294FDF777FE07B0F0BD0000BF
:1031900030380240000802400000024000040240B3
:1031A0000D4810B50B4901600C49416000214FF4F6
:1031B00080428160C0E9031241618161C1610162A5
:1031C000FDF750FF002803D0BDE81040FDF74FBCCD
:1031D00010BD00000054004040020020801A06008C
:1031E00010B586B00024174800940194029403940B
:1031F00004944FF0804105940160602141601021EA
:10320000816042F24861C0E9031480218161FFF7C7
:10321000F5F908B1FDF72BFC4FF48050009069469A
:103220000848FFF74AFA08B1FDF721FC049404A905
:1032300004480594FFF7A4F9002801D0FDF717FC16
:1032400006B010BD940200200C4810B50A49016078
:103250004FF47A314160002181600C22C160C0E9E5
:1032600004128161C161FFF75CFB002803D0BDE857
:103270001040FDF7FCBB10BD00100140D40200203F
:1032800010B500220F49104801F0CAFB08B1FDF744
:10329000EEFB0E490C4801F0A3FD08B1FDF7E7FB7A
:1032A0000B49094801F0C8F908B1FDF7E0FB0648F1
:1032B00001F0ECFD002803D0BDE81040FDF7D7BBBE
:1032C00010BD000004000020140300205401002061
:1032D0005400002070B5002504460570FDF7A2FEDD
:1032E00060602572204600F02FFD002070BDFEE7D3
:1032F00010B50446002020706070A070FDF792FEAB
:103300009FED030A606084ED020A002010BD0000FA
:103310000000000070B56A4D686801280BD1FDF708
:1033200081FE2968401AB0F57A7F04D9284600F05A
:1033300033FA64A0BFE0684C94F8600000286ED0B7
:10334000002084F8600094ED020B51EC100BFDF7A7
:103350009DF900EE100A5A48083000F0FFF894ED8D
:10336000040B51EC100BFDF791F900EE100A5448D4
:10337000143000F0F3F894ED060B51EC100BFDF750
:1033800085F900EE100A4E48203000F0E7F8686832
:1033900088B9A87A012806D0A87D012803D095F81D
:1033A0002200012807D101206860FDF73BFE28605C
:1033B0004AA002F0BFFB424BA87A2C335A1C9FED67
:1033C0004B0A032807D0A87D032829D095F82200AE
:1033D000032849D071E0D5ED040A20EE800AD5ED2E
:1033E000070AB4EEE00AF1EE10FA16DDD5ED0A0A8E
:1033F000B4EEE00AF1EE10FA0FDD00F04BF9E97AD5
:10340000401C0844197888541878401C18702C48BF
:1034100000F0C2F9E97A36A048E03AA04BE048E073
:10342000D5ED070A20EE800AD5ED040AB4EEE00AD5
:10343000F1EE10FA16DDD5ED0A0AB4EEE00AF1EE6F
:1034400010FA0FDD00F026F9E97DC01C0844197858
:1034500088541878401C1870194800F09DF9E97DCF
:103460002CA023E030A026E0D5ED0A0A20EE800A49
:10347000D5ED040AB4EEE00AF1EE10FA1ADDD5ED4E
:10348000070AB4EEE00AF1EE10FA13DD00F002F9DB
:1034900015F8231F401D0844197888541878401CDB
:1034A0001870074800F078F9297823A002F042FB51
:1034B000012070BD25A002F03DFB002070BD000082
:1034C000C41B00206D6F74696F6E2074696D652078
:1034D0006F7574210D0A0000D80100206D6F7469AA
:1034E0006F6E207374617274210D0A00CDCC4C3F55
:1034F000096D6F74696F6E206174207820256421D6
:103500000D0A0000097065616B2072656A207821E0
:103510000D0A0000096D6F74696F6E206174207967
:10352000202564210D0A0000097065616B20726519
:103530006A2079210D0A0000096D6F74696F6E2091
:103540006174207A202564210D0A000009706561EC
:103550006B2072656A207A210D0A00002DE9F04186
:1035600004462DED028BB0EE408A8078032802D10C
:103570002046FFF7BDFEA0784FF07C564FF03F4746
:10358000002530B14FF49678012822D0022849D086
:103590006FE018EE100AB04203DD2078401C207066
:1035A00006E018EE100AB8420AD96078401C607034
:1035B00021780120032906D06178032906D058E03C
:1035C0002570657055E02570E0704EE06570E5701F
:1035D0004BE0FDF727FD6168401A404503D92046BE
:1035E000FFF786FE50E0E078012818EE100A05D0BB
:1035F000B04211DD2078401C207006E0B84203D9AB
:103600006078401C607000E065702078032805D069
:103610006078032802D02CE02570F9E725706570EA
:10362000022022E0FDF7FEFC6168401A4045D6D832
:10363000E078012818EE100A05D0B8420BD960785E
:10364000401C607008E0B04203DD2078401C207010
:1036500002E0257003E065702078032802D06078CE
:10366000032806D1257065700320A070FDF7DAFCF1
:103670006060D4ED020AB0EEC80AB4EEE00AF1EEE2
:1036800010FA01DD84ED020A0020BDEC028BBDE8DA
:10369000F081000006480749406C884201D90020AB
:1036A00070470549884201DA062070470C207047B0
:1036B000D8010020000034C20000344270B50D482B
:1036C0000D49002402680B781078984207D1002039
:1036D0000AE015180E186D787678B54202D00C7095
:1036E000002070BD401CC0B28342F2D80C70012093
:1036F00070BD000064000020F01B002070B590B089
:103700006D460EA1284602F025FA00240D4E2D1D0F
:1037100007E020440CA14278284602F01BFA641C02
:10372000ED1C30680178A142F3DC002028706A4665
:10373000022100F072F910B0002070BD4E65773A9A
:1037400000000000640000202532642C000000000E
:1037500070B50A48FDF77CFA09A002F0EBF90024E5
:103760000B4D05E0204441780AA002F0E3F9641C07
:1037700028680178A142F5DC002070BDF01B002014
:103780004E6577206B65792069733A200000000050
:10379000640000202564200010B50446FDF742FCBB
:1037A00020600020606004F10800FFF7A1FD04F133
:1037B0001400FFF79DFD04F12000FFF799FD0020A4
:1037C00010BD704770B5002505F1B000C0B20021F2
:1037D00000F03CF90021084600F038F900211020E3
:1037E00000F034F900240121002000F02FF9641CBE
:1037F000E4B2802CF7D36D1CEDB2082DE4D370BD7C
:1038000010B5494C012240212046FDF705FC6420FB
:10381000FDF748FA002240212046FDF7FDFB642019
:10382000FDF740FA012240212046FDF7F5FB00217B
:10383000AE2000F00BF90021084600F007F9002146
:10384000102000F003F90021402000F0FFF80021D3
:10385000812000F0FBF80021CF2000F0F7F80021D4
:10386000A12000F0F3F80021C82000F0EFF80021BB
:10387000A62000F0EBF80021A82000F0E7F80021D6
:103880003F2000F0E3F80021D32000F0DFF8002112
:10389000084600F0DBF80021D52000F0D7F8002121
:1038A000802000F0D3F80021D92000F0CFF80021CB
:1038B000F12000F0CBF80021DA2000F0C7F8002159
:1038C000122000F0C3F80021DB2000F0BFF8002137
:1038D000402000F0BBF80021202000F0B7F80021C4
:1038E000022000F0B3F800218D2000F0AFF8002195
:1038F000142000F0ABF80021A42000F0A7F800216C
:10390000A62000F0A3F80021AF2000F09FF80021CE
:10391000AF2000F09BF8FFF755FF0021BDE81040F5
:10392000084600F003B800000000024010B504464D
:10393000B031C8B2002100F089F8102040EA14101C
:10394000002100F083F804F00F00BDE8104040F0C3
:103950000100002100F07AB82DE9F041203A00245E
:103960000F468046D5B27F2803D900208F1C8046A1
:10397000FFB23946FFF7DAFF0E4E04EB05100121C6
:10398000305C00F063F8641CE4B2082CF5D37F1CB3
:10399000F9B24046FFF7CAFF002404EB051030449B
:1039A0000121007A00F052F8641CE4B2082CF4D330
:1039B000BDE8F081528F00082DE9F04780460027CE
:1039C00008981D4691468A463C46460821E0281B39
:1039D000401EC1B20A2005F00FFAB9FBF0F00A212F
:1039E000B0FBF1F201FB120027B9691E8C4201DA2B
:1039F00030B101273030C2B206FB0480C0B203E010
:103A000006FB0480C0B220225146FFF7A5FF641CCC
:103A1000E4B2AC42DBD3BDE8F0872DE9F0411746B4
:103A20000E46044600250CE031462046FFF794FF81
:103A30000834E4B2782C02D90024B61CF6B26D1C0E
:103A4000EDB27A5D002AEFD1BDE8F08170B51A4E73
:103A5000054609B1012200E0002208213046FDF7A9
:103A6000DBFA002210213046FDF7D6FA00240022AE
:103A700020213046FDF7D0FA280601D5012200E0CA
:103A8000002280213046FDF7C7FA0122202130466E
:103A9000FDF7C2FA6806641C050EE4B2082CE6D3F2
:103AA000012210213046FDF7B7FA3046BDE87040DC
:103AB00001220821FDF7B0BA000002400148FDF7DD
:103AC00061BF0000B00500202DE9F0410546006807
:103AD0000E46016C00EB4614D4F8080B2B694FF42A
:103AE00000424FF0200C012B07D02B4B99424CD1B8
:103AF000010446D5C4F8082B4BE0DFF8A0E003072B
:103B000005F5717711D5714503D9000401D5C4F8C5
:103B1000082B2846FEF745FA3A460121286801F0AD
:103B20006FFD0820C4F8080B33E0830602D5C4F803
:103B300008CB2EE010F0280F2BD1714501D90004DD
:103B4000D8D4C6EBC60005EB8000D4F8102BD0F813
:103B50000412C2F312028A1AC0F81422D0F8082202
:103B60001144C0F80812F1B22846FDF7F1FD86B9FC
:103B7000D5F8100268B93A460121286801F040FDE5
:103B800007E0800601D5C4F808CBF1B22846FDF75E
:103B9000DFFD0020BDE8F0810A31544F0A30544F58
:103BA0002DE9F84F0E46C1EBC60100EB81048146BA
:103BB000D0F80080D4E914103C34884202D90120A6
:103BC000BDE8F88F081AA168814200D20846C01CDF
:103BD000870808EB461A15E0451AA068A84200D2EB
:103BE0000546E81C870899F810000090ABB2F2B2C5
:103BF0004046E16801F08AFFE0682844E060A0697F
:103C00002844A061DAF8180980B2B84205D3D4E993
:103C10000501814201D20028DED1D4E905018842A4
:103C200008D806F00F0101208840D8F834188143E5
:103C3000C8F834180020C3E77047000010B588208A
:103C40002DED028B88B03B4C8DF80000A1208DF843
:103C500001000C208DF8020094ED020B9FED368BD5
:103C600051EC100B53EC182BFCF7ECFBFCF7DCFCD5
:103C7000079094ED040B53EC182B51EC100BFCF750
:103C8000E1FBFCF7D1FC069094ED060B53EC182BEE
:103C900051EC100BFCF7D6FBFCF7C6FC05909DF829
:103CA0001F008DF803009DF81E008DF804009DF89C
:103CB0001D008DF805009DF81C008DF806009DF88C
:103CC0001B008DF807009DF81A008DF808009DF87C
:103CD00019008DF809009DF818008DF80A009DF86C
:103CE00017008DF80B009DF816008DF80C009DF85C
:103CF00015008DF80D009DF814008DF80E000023BE
:103D00008DF80F30184669469DF80F200C5C401C5A
:103D100022448DF80F200F28F6DB8DF810304FF677
:103D2000FF7310220648FEF763FE08B00020BDECCA
:103D3000028B10BDD80100200000000000408F4021
:103D4000D40200207047000010B50446FFF73AFD8A
:103D5000207A80B100210CA20846FFF75EFE0DA27A
:103D600002210020FFF759FE0EA20421BDE81040F9
:103D70000020FFF752BE00210CA20846FFF74DFEBF
:103D80000CA20221F2E70000556E6C6F636B656454
:103D9000210000004C6F6E672050726573732074B1
:103DA0006F0000005265636F726400004C6F636BBC
:103DB00065642100507265737320746F20556E6CBA
:103DC0006F636B2E0000000070B51348FFF782FA96
:103DD00011480C30FFF7E0FC0F49104D383100203E
:103DE000087028680078402801D3FCF71AFF0CA05F
:103DF00001F0A0FE002406E0204441780BA001F071
:103E000099FE641CE4B228680178A142F4D808A0A5
:103E100001F090FE002070BDB81B0020640000205F
:103E20004B65792069733A2000000000256420006A
:103E30000D0A00002DE9FC5F8A4C4FF0010A04F1E5
:103E400038052078002758B1DFF81C92102641F27F
:103E500088384FF4967B012852D0022879D00DE0A3
:103E6000824E01213046FDF7CBF838B91420FCF71B
:103E700019FF01213046FDF7C3F818B14FF0FF30AC
:103E8000BDE8FC9F4FF47A784046FCF70BFF012118
:103E90003046FDF7B5F870B1FFF794FC002174A22D
:103EA0000846FFF7BAFD6F480C30FFF775FC2F701E
:103EB00084F800A015E001213046FDF7A1F80028A4
:103EC000F9D0207A88B1FFF77DFC00216BA208466B
:103ED000FFF7A3FD63480C30FFF75EFC2F70022054
:103EE0002070FDF79FF86060B9E0FFF76BFC0021E0
:103EF00065A20846FFF791FD4046FCF7D3FE29E096
:103F0000FDF790F86168411A41452ED9FFF75AFC38
:103F1000002161A20846FFF780FD5E465846FCF787
:103F2000C1FEFFF7CBFB40F6B835B8B15DA2022168
:103F30000020FFF772FD3046FCF7B4FE5BA20421BF
:103F40000020FFF76AFD2846FCF7ACFE84F808A0C5
:103F50004BE01DE02046FFF7F7FE80E056A202216D
:103F60000020FFF75AFD284630E0FFF7D3F900287C
:103F700075D0D9F84400FCF776FBCDE900012A782A
:103F800050A0A95C01F0D6FDFFF71CFC38A243E06D
:103F9000FDF748F86168411A41452BD92878032874
:103FA00018D3FFF70FFC002152A20846FFF735FD9A
:103FB0005846FCF777FEFFF7CBFBFFF79FFB50A2BD
:103FC00006210020FFF729FD41F27070FCF76AFE20
:103FD00027720AE0FFF7F6FB00214BA20846FFF725
:103FE0001CFD4FF4FA60FCF75DFE2770FDF71AF830
:103FF0006060AFE7FFF78EF9002830D0D9F84400B1
:10400000FCF731FBCDE900012A782EA0A95C01F074
:1040100091FDFFF7D7FB19A200210846FFF7FDFC31
:104020003DA202210020FFF7F8FC00962878022329
:1040300019462A5C5020FFF7BFFC3AA20421002059
:10404000FFF7EBFC00962A78022304215020FFF7AB
:10405000B3FCFCF7E7FF6060C820FCF723FE0020FC
:104060000EE70000B81B0020D8010020000002402D
:10407000556E6C6F636B204D6F6465005265636FA6
:104080007264204D6F646500556E6C6F636B2066C3
:104090006972737421000000436865636B696E6721
:1040A0002E2E2E004D61746368210000556E6C6FDA
:1040B000636B2121212100004661696C21212121AE
:1040C0000000000047657374757265204E756D3A87
:1040D0002025642C20736571206C656E3A20256460
:1040E0002C2070697463683A2025352E32660D0ADB
:1040F00000000000536176696E672E2E2E000000CE
:104100005361766564210000546F6F2073686F728D
:1041100074212121000000004C61737420476573F5
:104120003A000000476573204C656E3A00000000BD
:10413000FDF738BA30B593B030216846FCF7C3F8C4
:1041400014210CA8FCF7BFF818480025016841F0BD
:1041500080510160006800F080501190144801689F
:1041600041F4404101600068022400F44040119095
:1041700001200090000401908001CDE90640192043
:104180000890C020CDE9090404200B906846FEF792
:104190003BF80CA90F2081E83100E002CDE90F05C2
:1041A00003210CA8FDF73EFF13B030BD403802409C
:1041B000007000400548016841F470010160034946
:1041C0004FF00060803908607047000088ED00E023
:1041D0000148FEF7DEBA000094020020F0B5026844
:1041E0001D4C1E4D1E4E1F4F4FF0804CA04207D05D
:1041F000604505D0A84203D0B04201D0B84203D1F7
:1042000022F070034A681A43A04210D060450ED0D5
:10421000A8420CD0B0420AD0B84208D0124B984203
:1042200005D0124B984202D0114B984203D122F490
:104230004073CA681A434B6922F080021A43026035
:104240008A68C2620A688262A04201D10969016378
:1042500001214161F0BD0000000001400004004068
:1042600000080040000C00400040014000440140B4
:104270000048014010B5846842EA032224F47F44D8
:104280000A432243826010BD826822F070020A4312
:1042900042F007018160704710B5046A036A23F099
:1042A00001030362836923F0F00343EA021324F05D
:1042B0000A020A438361026210BD10B5036A23F04B
:1042C000100303628469036A24F4704444EA0232EE
:1042D00023F0A00343EA01118261016210BD0000D6
:1042E0002DE9F041044600680169E26821F440517B
:1042F00011430161A1682069E269014360691043CB
:1043000001432068C26849F20C639A430A43C260C1
:1043100020684169A26921F4407111434161E0695B
:10432000192764253226B0F5004F354A35492068F3
:104330004FF0000806D0884201D0904236D1FDF7F8
:1043400021FF35E0884201D0904202D1FDF71AFFEB
:1043500001E0FDF707FF61684A18A0FB070148EB81
:104360000803FBF735FF0146B0FBF5F00201B1FB96
:10437000F5F06FF01803584301EB800006EBC00026
:10438000B0FBF5F000F0F80002EB4002B1FBF5F0F5
:10439000584301EB800006EBC000B0FBF5F000F0E5
:1043A0000700216810448860BDE8F081FDF7DAFE5F
:1043B00001466068830F8200A1FB0701FBF708FF3D
:1043C0000146B0FBF5F06FF01802504301EB80009E
:1043D00006EB0010B0FBF5F000F0F002B1FBF5F0D9
:1043E00002EB0012B1FBF5F06FF01803584301EB3C
:1043F000800006EB0010B0FBF5F000F00F00D0E7F6
:1044000000140140001001402DE9F0411E461746FE
:1044100088460446069D1CE0681C1AD025B1FCF7AE
:1044200001FE801BA84214D92068C16821F4D07114
:10443000C1602068416921F001014161202084F8B8
:10444000390084F83A00002084F838000320BDE8E1
:10445000F0812068016838EA010004D00020B842E9
:10446000DAD00020F3E70120F9E72DE9F041D0F898
:104470009852D0F89022DAB101EB810300EB83036C
:104480000026DC694CB1C1EBC10705EB87056D6CFB
:10449000B4FBF5F705FB174424B1C2F81462002001
:1044A000BDE8F081DE6100231A4600F07CFCF6E7EF
:1044B0000220F5E770B50546D0F8904200F088FB81
:1044C000C4F80C02D5F8900248B1D5F89412D4F88B
:1044D0000402CA6804F503719047002070BD0220F1
:1044E00070BD70B504460026812100F0B7FA0025A2
:1044F00001212046E56200F0B1FA82212046C4F88D
:10450000585100F0ABFA2564D4F8900248B1D4F8C1
:10451000940204F5247440688047206803F0E6F9AB
:104520002560304670BD10B5D0E9A44159B194F86A
:104530000002FF2807D08B6894F801222146984793
:10454000FF2084F80002002010BD00000A21018035
:10455000004870477C0000204321018000487047DC
:10456000CC000020432101800048704788000020D3
:104570004321018000487047100100202DE9F041DF
:1045800004460026007C4FF40077012590B34023B9
:1045900002228121204600F063FB4023E5620222D3
:1045A0000121204600F05CFB0823032282212046E3
:1045B000C4F8585100F054FB4FF40770256403F021
:1045C000BFFCC4F89002F8B10546D4F89402006824
:1045D00080470021C5F81412C5F81812207CD5F8C0
:1045E000042298B140230121204600F045FB3046CB
:1045F000BDE8F081FFE73B4602228121204600F022
:104600002FFB3B46E562CAE70126F0E73B46EAE7B7
:1046100010B5D0F8901269B1027C002AD1F80422BA
:1046200005D04023012100F027FB002010BD4FF4EE
:104630000073F7E7022010BD02460220002902D0D5
:104640000020C2F894127047D0F89002C0F804120B
:1046500000207047D0F89002C0F81022C0F808126D
:10466000002070472DE9FC410546D0F890720020EB
:104670008DF80000ADF80400064608780C4610F0EE
:10468000600121D020293BD1E288AAB100066078E0
:1046900007D5D5F894128B6839469847E288394691
:1046A00026E087F80002A07987F80102E2883946FF
:1046B000284600F06AF828E0D5F8941260780022C5
:1046C0008B682146984720E0607820B10A2809D0FD
:1046D0000B2815D110E095F87402032810D102229E
:1046E00001A905E095F87402032809D10122694661
:1046F000284600F064F808E095F87402032804D016
:104700002146284600F036F802263046BDE8FC81F6
:1047100010B5D0F89012A1B1D1F814220AB101203D
:1047200010BD0122C1F81422D1F810220263B1F8A1
:10473000102293B2D1F80822812100F034FB00202E
:1047400010BD022010BD10B5D0F88C2252689047E1
:10475000002010BD134610B50A46002100F08CFA67
:10476000002010BD134610B50A46002100F01BFBC7
:10477000002010BD10B50446802100F0F9FA204653
:10478000BDE81040002100F0F3BA10B50323C0F8D3
:104790004821C0F86C32C0F84C2113460A4600216B
:1047A00000F06AFA002010BD10B505210023C0F802
:1047B0006C121A46194600F05FFA002010BD10B5C1
:1047C0000223C261C0F86C32026213460A4600211D
:1047D00000F0E9FA002010BD10B504210023C0F854
:1047E0006C121A46194600F0DEFA002010BD0000D7
:1047F00010B50A46024903A000F0E2F8004810BDD7
:10480000B809002043444320436F6E666967000087
:1048100012200880004870472400002010B50A4686
:10482000024903A000F0CCF8004810BDB8090020F0
:1048300043444320496E74657266616365000000FD
:1048400004200880004870472000002010B50A4668
:10485000024903A000F0B4F8004810BDB8090020D8
:1048600053544D6963726F656C656374726F6E69E2
:104870006373000010B50A46024903A000F0A0F8D7
:10488000004810BDB809002053544D3332205669FA
:10489000727475616C20436F6D506F72740000000C
:1048A00010B51A2008800A480168001D0468001D20
:1048B0000068081809D008220649FEF7E2FA0549FF
:1048C000042210312046FEF7DCFA0248801E10BD9B
:1048D000107AFF1F3A000020F8B5044648880D46BC
:1048E000010A08294BD2DFE801F04A0409174A4AB5
:1048F0004048D4F88812207C0A6832E0207C0226E6
:104900000028D4F88C0205D0C16A68468847014661
:10491000467041E0816AF8E7C0B206282FD2DFE88E
:1049200000F003080D12171CD4F88812207C4A6886
:1049300017E0D4F88812207C8A6812E0D4F8881234
:10494000207CCA680DE0D4F88812207C0A6908E04F
:10495000D4F88812207C4A6903E0D4F88812207CBD
:104960008A6969469047014616E0207C38B9D4F838
:104970008C02416B68468847F5E7207C20B12946C8
:104980002046FFF7F7FEF8BDD4F88C02016B6846AD
:104990008847014607204870BDF8000048B1EA8802
:1049A00052B1824200D90246ADF800202046FFF7FE
:1049B00006FFE8880028E6D12046FFF70DFFF8BD86
:1049C00070B5002300281ED00446002502E06D1CAF
:1049D000EDB2641C2678002EF9D1022404EB4504C4
:1049E00014801278CA545B1C0322CA5400245B1C36
:1049F00006E0CA545B1CDAB28C54521CD3B2401C81
:104A00000278002AF5D170BD01004FF0000004D0FB
:104A1000012901D0022901D00220704701207047EE
:104A200010B580B1D0F88C3213B10023C0F88C32AD
:104A300009B1C0F88812012180F87412027000F0E8
:104A4000CBF8002010BD022010BD10B5D0F89802A0
:104A5000FCF7B2FEBDE81040FFF7D6BF10B5D0F8A6
:104A60009802FCF783FEBDE81040FFF7CDBF2DE9AB
:104A7000F0411746044651B1D4F88C0242691AB18C
:104A800094F87402032851D00220BDE8F081D4F8D4
:104A90006C32002504F11400022B03D0042B3AD011
:104AA000C3B33CE0D0E903639E4207D9F11AC16069
:104AB0008AB239462046FFF755FE12E08068B0FB07
:104AC000F3F103FB110199B9984211D3D4F8701294
:104AD00088420DD2002211462046FFF743FEC4F85B
:104AE000705200231A461946204600F0C5F816E019
:104AF000D4F88C02C16829B194F87402032801D15A
:104B0000204688478021204600F032F92046FFF7F2
:104B10004BFE04E0FFE78021204600F029F994F8DD
:104B20007802012804D184F8785201E020469047A9
:104B30000020AAE770B51546044649B1D4F88C02A6
:104B400082691AB194F87402032830D0022070BD33
:104B5000D4F86C1204F5A070032902D005291ED0E8
:104B600027E0D0E903318B420BD95B1AC3600846BA
:104B7000834200D303469AB229462046FFF7EAFD56
:104B800017E0D4F88C02016929B194F87402032863
:104B900001D1204688472046FFF71EFE09E000208D
:104BA0000146C4F86C02204600F0E2F801E020461D
:104BB0009047002070BD0020704710B5012180F89B
:104BC0007412D0F88C22017952689047002010BDF1
:104BD000D0F89802FCF71EBE10B5017839BB154914
:104BE0000222C1F80404C0F898124FF0A0400860F7
:104BF000042048600020C1E90320C1E906200862C2
:104C00004862C86208630846FDF7E8F808B1FBF798
:104C10002EFF80210748FCF768FD4022002105484F
:104C2000FCF767FD802201210248FCF762FD0020AD
:104C300010BD0000B00500200A0601F07F01D0F889
:104C40009802C1EBC10100EB810002D590F83E0053
:104C5000704790F8FE0170470020704700207047B1
:104C600010B51C461346D0F898022246FCF7DBFD2F
:104C7000BDE81040FFF7C8BE10B5D0F89802FCF7A9
:104C800002FEBDE81040FFF7BFBE70B5002204462B
:104C900040231146FFF7E4FF40260125C4F8506188
:104CA0003346002280212046C4F84451FFF7D8FF44
:104CB0006662A56184F874520020C4F86C026060DA
:104CC000C4F87C02D4F8900228B1D4F88C020021F8
:104CD000426820469047002070BD90F8751280F819
:104CE00074120020704710B590F87412032904D193
:104CF000D0F88C12C96901B18847002010BD017439
:104D00000020704710B5D0F89802FDF736F9BDE8DD
:104D10001040FFF779BE70B5044600F520700546D7
:104D200000F04AF80120C4F86C02B4F88602C4F816
:104D3000700294F8802212F01F000AD001280DD0D2
:104D4000022810D002F08001204600F011F8002067
:104D500070BD2946204600F09EF8F8E72946204617
:104D600000F0CAF9F3E72946204600F01DF9EEE706
:104D700010B5D0F89802FCF7AAFDBDE81040FFF787
:104D800043BE10B5D0F89802FDF712F9BDE8104007
:104D9000FFF73ABE90F8741280F87512042180F87B
:104DA00074120020704710B5D0F89802FCF7C9FDC6
:104DB000BDE81040FFF728BE0A7802704A784270BA
:104DC0008A78CB7802EB032242800A794B7902EB96
:104DD000032282808A79C97902EB0121C180704760
:104DE0000246002011B1C2F88C12704702207047B1
:104DF00010B5D0F88C2202241AB11268904700B97D
:104E00000024204610BD000070B50E461E4D897866
:104E100004462970012931D894F8740202280BD075
:104E200003280FD031462046FFF7A4FC29782046FE
:104E3000BDE87040FFF787BCD9B10320616084F8FA
:104E4000740209E071B16068884212D0C1B2204694
:104E5000FFF779FC297861602046FFF7C9FF022837
:104E60000CD006E0022084F8740220466160FFF74F
:104E70006AFC2046BDE87040FFF7AEBC31462046D4
:104E8000BDE87040FFF776BC7800002010B5FFF752
:104E900078FF002010BD2DE9F0410A78002712F0BC
:104EA000600208D0202A01D0402A70D1D0F88C228C
:104EB000926890476DE04A78002301260A2A66D25C
:104EC000DFE802F0405D6557650805652C29FFF7AE
:104ED00003FD5EE004468888D8B9C888C8B9488808
:104EE000802816D200F07F0594F87402032810D0B1
:104EF00084F8765229462046FFF704FF2046FFF744
:104F00006BFC1DB1022084F8740242E084F87462E4
:104F10003FE020463BE0FFF777FF3AE0CA88012AEE
:104F200035D190F87422012A04D0022A02D0032A33
:104F30002DD104E0012200F10801836016E0012276
:104F4000011D13E090F87422012A03D0022A01D037
:104F5000032A1CD1CA88022A19D1C660D0F87C1253
:104F600009B10321C160022200F10C01FFF727FC07
:104F70000FE0498801290CD1C0F87C6211E090F85B
:104F80007422012A08D0022A06D0032A04D0FFF78F
:104F9000F1FB3846BDE8F08149880129F9D1C0F814
:104FA0007C32FFF719FCF4E72DE9F0410A4604468C
:104FB00013780027097913F060000AD0202801D067
:104FC000402850D1D4F88C02114683682046984777
:104FD0008FE0C3F34110012806D05078D0B30128E8
:104FE0002AD003283FD107E0D4F88C021146836809
:104FF0002046BDE8F041184794F87402022802D018
:10500000032872D10AE071B380296ED02046FFF7E1
:10501000AFFE80212046FFF7ABFE6AE0508838B92A
:1050200031B1802904D0D08810B92046FFF7A0FE06
:105030002046FFF7D1FB5CE094F874020228E2D02E
:10504000032852D1508898BB4806F1D02046FFF77C
:10505000FCFCEDE7FFE794F874020026022803D079
:10506000032842D112E040E009B180293DD1080671
:1050700001F07F0000EB800004EB800101D51431CA
:1050800001E001F5A07102220E602AE0080601F09D
:105090000F0000EB800004EB80000AD5806920B38C
:1050A00001F07F0000EB800004EB800514350BE07D
:1050B0001FE0D0F84401C0B101F07F0000EB800098
:1050C00004EB800505F5A07541B1802906D0204686
:1050D000FFF7B2FD10B10120286000E02E6002222F
:1050E00029462046FFF76BFB03E011462046FFF7F9
:1050F00041FB3846BDE8F08170B5054608780C469E
:1051000010F0600203D0202A01D0402A16D195F871
:105110007422012A03D0022A01D0032A0ED1207959
:1051200001280BD8D5F88C02826828469047E18880
:10513000014306D12846FFF74FFB02E02846FFF760
:1051400019FB002070BD000070B50A78012302F041
:105150000F054E78AB401B4CD0F81C58012E17D0D1
:1051600045EA0343C0F81C3800EB4210D0F8002B8E
:1051700012040BD4D0F8002B0B89C978C3F30A03AF
:105180001A4344EA81410A43C0F8002B002070BD55
:105190009BB21D43C0F81C5800EB4210D0F80039F8
:1051A0001B04F3D4D0F800390D89C978C5F30A057A
:1051B00089042B4341EA82510B432343C0F8003951
:1051C000E4E7000000800010D0F800196FF30A0136
:1051D000C0F80019D0F80818C1F34101022905D11F
:1051E000D0F8001941F00301C0F80019D0F80418F4
:1051F00041F48071C0F804180020704770B504466F
:1052000006980A9E049D0D99012816D0E06840F08A
:105210004000E060204600F02BF8A16B1EB321F4A3
:105220008031A163012D07D1A16841F00601A16081
:10523000A16841F02001A16070BDA06B20F4803016
:10524000A063E068094A1040E060E06820F4401084
:10525000E060012903D1E06840F48010E06020465E
:1052600000F006F8DEE741F48031DAE7BFFFBDFF6A
:105270000B4A0021491C91420AD80369002BF9DA34
:105280000369002143F001030361491C914201D9E4
:10529000032070470369DB07F7D100207047000047
:1052A000400D030070B50B78012403F00F054E7814
:1052B00004FA05F2D0F83C58012E17D025EA024234
:1052C000C0F83C28D0F81C28097801F00F018C4068
:1052D00022EA0441C0F81C1800EB4310D0F8001B70
:1052E0000E4A1140C0F8001B002070BD92B29543D9
:1052F000C0F83C58D0F81C28097801F00F018C4008
:10530000A1B28A43C0F81C2800EB4310D0F8001962
:10531000034A1140C0F80019E6E700000078F3EFF7
:10532000007833EC10B5D0F8041821F00201C0F871
:1053300004180320FBF7B6FC002010BD10B5D0F810
:10534000041841F00201C0F804180320FBF7AAFC7E
:10535000002010BD2DE9F04F0D46DDE90B1B0027A5
:105360000446DDF840A0DDF8249038463E4604EBC4
:105370008002C2F80461401C0F28F8D3BAF1000F74
:10538000204615D0006820F400122260A06B40F483
:1053900000222046A263C4F8006ED4F80028C4F8A6
:1053A0000028012910D0D0F8001841F0030110E0C6
:1053B000806B40F40012A263A06B20F40022A26371
:1053C000A06B20F48022E4E7D0F800180BB141F084
:1053D0000101C0F80018102100F09EFA00B1012769
:1053E000204600F089FA00B10127C4F81068C4F81B
:1053F0001468C4F81C6800204FF000634FF090421E
:105400004FF67F3C14E004EB4011D1F80089B8F16D
:10541000000F06DA10B1C1F8002904E0C4F8003921
:1054200001E0C1F80069C1F81069C1F808C9401C61
:105430008542E8D8002014E004EB4011D1F8008B3D
:10544000B8F1000F06DA10B1C1F8002B04E0C4F87F
:10545000003B01E0C1F8006BC1F8106BC1F808CB4C
:10546000401C8542E8D8D4F8100820F48071C4F8B4
:105470001018B9F1010F08D11449C4F83018D4F844
:10548000300813490843C4F83008A6616FF0804023
:105490006061B9F1000F03D1A06940F01000A06174
:1054A000A0690C490843A061BBF1000F03D0A069BB
:1054B00040F00800A061BAF1010F03D1A0690649CC
:1054C0000843A0613846BDE8F08F0000000180006D
:1054D0000300010000383C8004000040816821F096
:1054E000010181600020704770B50D784E78434C03
:1054F000EBB200EB4313012E1FD0D3F8100B6FF368
:105500001200C3F8100BD3F8100B2040C3F8100B97
:10551000486908B188684861D3F8100B40F400204E
:10552000C3F8100BD3F8100B8C68C4F3120420439B
:10553000C3F8100B012A55D058E04E69002ED3F85D
:10554000106932D06FF31206C3F81069D3F81069EE
:105550002640C3F810694E698C68A64200D94C6198
:10556000D3F8104944F40024C3F81049D3F8104983
:105570004E69C6F312063443C3F81049012A22D0FB
:1055800000EB4512D2F8003943F00443C2F8003969
:105590004A6932B3D0F83428097801F00F030121A9
:1055A00099400A43C0F8342826E02640C3F8106921
:1055B000D3F8104944F40024C3F81049D3F8104933
:1055C0006FF31204D8E7096919B100EB4512C2F86C
:1055D000141900EB4510D0F8001941F00441C0F84F
:1055E000001909E0C86808B1C3F8140BD3F8000B20
:1055F00040F00440C3F8000B002070BDFFFF07E03F
:1056000010B5036C134CA34203D9D0F8003B002B18
:105610001EDB0023C0F8103BD0F8103B43F40023FE
:10562000C0F8103BD0F8103B43F01803C0F8103B13
:10563000D0F8103B43F0C043C0F8103B012907D11C
:10564000C0F8142BD0F8001B41F08021C0F8001BDB
:10565000002010BD0A30544F4A780B78012A00EB25
:1056600043100BD0D0F8002B22F40012C0F8002B0E
:10567000C978032914D0022912D017E0D0F80029E4
:1056800022F40012C0F80029C978032901D00229A8
:105690000CD1D0F8001941F08051C0F8001905E094
:1056A000D0F8001B41F08051C0F8001B002070476B
:1056B0000A784B78D1B200EB4110012B12D0D0F810
:1056C000001B002906DB2AB1D0F8001B21F0804125
:1056D000C0F8001BD0F8001B41F40011C0F8001BFB
:1056E00000207047D0F80019002906DB2AB1D0F855
:1056F000001921F08041C0F80019D0F8001941F4D8
:105700000011C0F80019EBE7F8B50C784E78764D2B
:10571000E3B26FF0604700EB4313012E26D0D3F8BD
:10572000104B6FF31204C3F8104BD3F8104B2C40FE
:10573000C3F8104B4D69002D73D08C6825446D1E45
:10574000B5FBF4F4D3F8105BA4B207EAC4463543C2
:10575000C3F8105BD3F8105B8E686643C6F312047F
:105760002543C3F8105B012A70D0A5E04E69002ED6
:10577000D3F8106921D06FF31206C3F81069D3F87B
:1057800010692E40C3F810694E698D682E44761E4C
:10579000B6FBF5F5D3F8106907EAC5453543C3F8FC
:1057A0001059D3F810594E69C6F312063543C3F8A1
:1057B0001059CD78012D0ED019E02E40C3F8106994
:1057C000D3F8105945F40025C3F81059D3F81059EF
:1057D0006FF3120509E0D3F8105925F0C045C3F85E
:1057E0001059D3F8105945F00055C3F81059012A43
:1057F00018D000EB4413D3F8004944F00444C3F834
:105800000049CC78012C2FD04A6962B3D0F83428F3
:10581000097801F00F03012199400A43C0F83428A8
:1058200060E036E00A691AB100EB4413C3F81429AA
:10583000C97801290FD1D0F80818C90500EB441127
:10584000D1F8002903D442F0005202E030E042F0E7
:105850008052C1F8002900EB4410D0F8001941F043
:105860000441C0F800193DE0D0F80848E405D3F839
:10587000004902D444F0005401E044F08054C3F8DD
:10588000004900928A8A93B20A78C96800F03EF90A
:1058900028E0D3F8104B8D68C5F312052C43C3F8EC
:1058A000104BD3F8104B44F40024C3F8104B5AE7C4
:1058B000CA680AB1C3F8142BC97801290CD1D0F8F1
:1058C0000808C005D3F8000B02D440F0005001E0F6
:1058D00040F08050C3F8000BD3F8000B40F00440B8
:1058E000C3F8000B0020F8BDFFFF07E0816841F01E
:1058F0000101816000207047002110220261054AE9
:10590000491C914201D9032070470369DB06F7D493
:1059100000207047400D03000022202343EA81113C
:1059200001610549521C8A4201D90320704703696D
:105930009B06F7D400207047400D0300D0F80808FC
:1059400010F0060004D0022803D0062801D00F2052
:10595000704702207047406900F001007047D0F89E
:105960001818D0F81C08084080B27047D0F81818F2
:10597000D0F81C080840000C704710B5D0F810385B
:10598000D0F8342801F00F0400EB4110E24002F09F
:105990000102D0F8080943EAC212104010BD00EB22
:1059A0004111D1F8081BD0F814080840704741692C
:1059B0008069084070470346D21C10B5084692081B
:1059C000002103F5805302E01C68491C10C091427D
:1059D000FAD310BD10B5C26822F0C042C2600129DE
:1059E00002D029B1012010BDC16841F0005102E090
:1059F000C16841F08041C1603220FBF753F90020BB
:105A000010BDD0F8002822F4FE62C0F80028D0F8BB
:105A100000284FF4FE6303EA01110A43C0F800288E
:105A200000207047022A3ED1264A274B0A449A4258
:105A300001D20F2138E0254A254B0A449A4201D26F
:105A40000E2131E0234A244B0A449A4201D20D210F
:105A50002AE0224A224B0A449A4201D20C2123E036
:105A6000204A214B0A449A4201D20B211CE01F4AD2
:105A70001F4B0A449A4201D20A2115E01D4A1E4BCF
:105A80000A449A420FD31D4A1D4B0A449A4201D23E
:105A9000082109E01B4A11441B4A914201D2072107
:105AA00002E0062100E00921C26822F47052C260BF
:105AB000C2684FF4705303EA81210A43C260002098
:105AC00070470000405327FF00350C00401E1BFFAD
:105AD00040420F0000DC0BFF804F1200808CF9FE6B
